:020000040800F2
:1000000000500020C91500086D1000086F1000088E
:10001000711000087310000875100008000000003F
:100020000000000000000000000000007710000841
:1000300079100008000000007B1000087D10000807
:1000400011160008111600081116000811160008F4
:1000500011160008111600081116000811160008E4
:1000600011160008111600081116000811160008D4
:1000700011160008111600088510000895100008D8
:10008000A5100008B5100008111600081116000888
:1000900011160008111600081116000811160008A4
:1000A0001116000811160008111600081116000894
:1000B000C5100008111600081116000811160008D6
:1000C0001116000811160008111600081116000874
:1000D00011160008D5100008591100081116000863
:1000E0001116000811160008111600080000000083
:1000F0000000000000000000000000000000000000
:0C01000000000000000000005FF808F1A3
:1001100010B5054C237833B9044B13B10448AFF341
:1001200000800123237010BDD809002000000000CA
:100130005898000808B5034B1BB103490348AFF3B7
:10014000008008BD00000000DC090020589800086D
:10015000844641EA000313F0030349D1403A23D314
:100160000B6803604B6843608B688360CB68C36037
:100170000B6903614B6943618B698361CB69C3611F
:100180000B6A03624B6A43628B6A8362CB6AC36207
:100190000B6B03634B6B43638B6B8363CB6BC363EF
:1001A00040304031403ADBD230320BD30B68036031
:1001B0004B6843608B688360CB68C360103010313C
:1001C000103AF3D20C3205D351F8043B40F8043B0B
:1001D000043AF9D2043208D0D2071CBF11F8013B0F
:1001E00000F8013B01D30B8803806046704700BFD5
:1001F000082A13D38B07B1D010F00303AED0C3F19C
:100200000403D21ADB071CBF11F8013B00F8013BC5
:10021000A4D331F8023B20F8023B9FE7043AD9D33C
:10022000013A11F8013B00F8013BF9D20B78037059
:100230004B7843708B7883706046704781F0004143
:1002400002E000BF83F0004330B54FEA41044FEABB
:10025000430594EA050F08BF90EA020F1FBF54EA56
:10026000000C55EA020C7FEA645C7FEA655C00F0F2
:10027000E2804FEA5454D4EB5555B8BF6D420CDDC3
:100280002C4480EA020281EA030382EA000083EA46
:10029000010180EA020281EA0303362D88BF30BDE6
:1002A00011F0004F4FEA01314FF4801C4CEA11313C
:1002B00002D0404261EB410113F0004F4FEA03339B
:1002C0004CEA133302D0524263EB430394EA050F26
:1002D00000F0A780A4F10104D5F1200E0DDB02FA95
:1002E0000EFC22FA05F2801841F1000103FA0EF229
:1002F000801843FA05F359410EE0A5F120050EF1EF
:10030000200E012A03FA0EFC28BF4CF0020C43FA1F
:1003100005F3C01851EBE37101F0004507D54FF02C
:10032000000EDCF1000C7EEB00006EEB0101B1F57C
:10033000801F1BD3B1F5001F0CD349085FEA3000C2
:100340004FEA3C0C04F101044FEA445212F5800FCD
:1003500080F09A80BCF1004F08BF5FEA500C50F16A
:10036000000041EB045141EA050130BD5FEA4C0C4D
:10037000404141EB0101013C28BFB1F5801FE9D2AA
:1003800091F0000F04BF01460020B1FA81F308BFCD
:100390002033A3F10B03B3F120020CDA0C3208DD99
:1003A00002F1140CC2F10C0201FA0CF021FA02F174
:1003B0000CE002F11402D8BFC2F1200C01FA02F1E4
:1003C00020FA0CFCDCBF41EA0C019040E41AA2BF09
:1003D00001EB0451294330BD6FEA04041F3C1CDAD1
:1003E0000C340EDC04F11404C4F1200220FA04F0F1
:1003F00001FA02F340EA030021FA04F345EA03019B
:1004000030BDC4F10C04C4F1200220FA02F001FA5C
:1004100004F340EA0300294630BD21FA04F02946DE
:1004200030BD94F0000F83F4801306BF81F4801177
:100430000134013D4EE77FEA645C18BF7FEA655CEA
:1004400029D094EA050F08BF90EA020F05D054EABC
:10045000000C04BF1946104630BD91EA030F1EBFC1
:100460000021002030BD5FEA545C05D140004941C5
:1004700028BF41F0004130BD14F580043CBF01F5B8
:10048000801130BD01F0004545F0FE4141F470019E
:100490004FF0000030BD7FEA645C1ABF1946104679
:1004A0007FEA655C1CBF0B46024650EA013406BF7A
:1004B00052EA033591EA030F41F4002130BD00BF39
:1004C00090F0000F04BF0021704730B54FF48064F6
:1004D00004F132044FF000054FF0000150E700BF77
:1004E00090F0000F04BF0021704730B54FF48064D6
:1004F00004F1320410F0004548BF40424FF00001C3
:100500003EE700BF42004FEAE2014FEA31014FEA05
:1005100002701FBF12F07F4393F07F4F81F0605154
:10052000704732F07F4208BF704793F07F4F04BF9F
:1005300041F40021704730B54FF4607401F000457C
:1005400021F000411CE700BF50EA010208BF7047DC
:1005500030B54FF000050AE050EA010208BF7047CD
:1005600030B511F0004502D5404261EB41014FF436
:10057000806404F132045FEA915C3FF4D8AE4FF03E
:1005800003025FEADC0C18BF03325FEADC0C18BF21
:10059000033202EBDC02C2F1200300FA03FC20FA72
:1005A00002F001FA03FE40EA0E0021FA02F11444BF
:1005B000BDE600BF70B54FF0FF0C4CF4E06C1CEAD8
:1005C00011541DBF1CEA135594EA0C0F95EA0C0F49
:1005D00000F0DEF82C4481EA030621EA4C5123EABC
:1005E0004C5350EA013518BF52EA033541F48011EB
:1005F00043F4801338D0A0FB02CE4FF00005E1FB9E
:1006000002E506F00042E0FB03E54FF00006E1FBE7
:1006100003569CF0000F18BF4EF0010EA4F1FF042A
:10062000B6F5007F64F5407404D25FEA4E0E6D416A
:1006300046EB060642EAC62141EA55514FEAC5207B
:1006400040EA5E504FEACE2EB4F1FD0C88BFBCF5F7
:10065000E06F1ED8BEF1004F08BF5FEA500E50F1A8
:10066000000041EB045170BD06F0004646EA01016E
:1006700040EA020081EA0301B4EB5C04C2BFD4EBA0
:100680000C0541EA045170BD41F480114FF0000E99
:10069000013C00F3AB8014F1360FDEBF002001F007
:1006A000004170BDC4F10004203C35DA0C341BDC81
:1006B00004F11404C4F1200500FA05F320FA04F053
:1006C00001FA05F240EA020001F0004221F0004187
:1006D00010EBD37021FA04F642EB06015EEA430EFA
:1006E00008BF20EAD37070BDC4F10C04C4F120052A
:1006F00000FA04F320FA05F001FA04F240EA0200DD
:1007000001F0004110EBD37041F100015EEA430EAD
:1007100008BF20EAD37070BDC4F1200500FA05F2CD
:100720004EEA020E20FA04F301FA05F243EA02034C
:1007300021FA04F001F0004121FA04F220EA02005B
:1007400000EBD3705EEA430E08BF20EAD37070BDA1
:1007500094F0000F0FD101F00046400041EB010181
:1007600011F4801F08BF013CF7D041EA060195F063
:10077000000F18BF704703F00046520043EB03031D
:1007800013F4801F08BF013DF7D043EA060370470A
:1007900094EA0C0F0CEA135518BF95EA0C0F0CD015
:1007A00050EA410618BF52EA4306D1D181EA03015B
:1007B00001F000414FF0000070BD50EA410606BF55
:1007C0001046194652EA430619D094EA0C0F02D19A
:1007D00050EA013613D195EA0C0F05D152EA0336DF
:1007E0001CBF104619460AD181EA030101F00041FD
:1007F00041F0FE4141F470014FF0000070BD41F046
:10080000FE4141F4780170BD70B54FF0FF0C4CF41F
:10081000E06C1CEA11541DBF1CEA135594EA0C0F3E
:1008200095EA0C0F00F0A7F8A4EB050481EA030E8B
:1008300052EA03354FEA013100F088804FEA033372
:100840004FF0805545EA131343EA12634FEA022240
:1008500045EA111545EA10654FEA00260EF0004101
:100860009D4208BF964244F1FD0404F5407402D253
:100870005B084FEA3202B61A65EB03055B084FEAE4
:1008800032024FF480104FF4002CB6EB020E75EBE1
:10089000030E22BFB61A754640EA0C005B084FEA09
:1008A0003202B6EB020E75EB030E22BFB61A754686
:1008B00040EA5C005B084FEA3202B6EB020E75EBD1
:1008C000030E22BFB61A754640EA9C005B084FEA49
:1008D0003202B6EB020E75EB030E22BFB61A754656
:1008E00040EADC0055EA060E18D04FEA051545EA45
:1008F00016754FEA06164FEAC30343EA52734FEAEE
:10090000C2025FEA1C1CC0D111F4801F0BD141EA66
:1009100000014FF000004FF0004CB6E711F4801FCB
:1009200004BF01430020B4F1FD0C88BFBCF5E06FAB
:100930003FF6AFAEB5EB030C04BFB6EB020C5FEABB
:10094000500C50F1000041EB045170BD0EF0004E10
:100950004EEA113114EB5C04C2BFD4EB0C0541EA42
:10096000045170BD41F480114FF0000E013C90E63F
:1009700045EA060E8DE60CEA135594EA0C0F08BF03
:1009800095EA0C0F3FF43BAF94EA0C0F0AD150EA02
:1009900001347FF434AF95EA0C0F7FF425AF104695
:1009A00019462CE795EA0C0F06D152EA03353FF4BD
:1009B000FDAE1046194622E750EA410618BF52EA3A
:1009C00043067FF4C5AE50EA41047FF40DAF52EA0E
:1009D00043057FF4EBAE12E74FF0FF3C06E000BFAB
:1009E0004FF0010C02E000BF4FF0010C4DF804CDB8
:1009F0004FEA410C7FEA6C5C4FEA430C18BF7FEA78
:100A00006C5C1BD001B050EA410C0CBF52EA430CA5
:100A100091EA030F02BF90EA020F0020704710F125
:100A2000000F91EA030F58BF994208BF90422CBFB4
:100A3000D8176FEAE37040F0010070474FEA410CAD
:100A40007FEA6C5C02D150EA013C07D14FEA430CCB
:100A50007FEA6C5CD6D152EA033CD3D05DF8040B3C
:100A6000704700BF8446104662468C46194663466E
:100A700000E000BF01B5FFF7B7FF002848BF10F145
:100A8000000F01BD4DF808EDFFF7F4FF0CBF01208A
:100A900000205DF808FB00BF4DF808EDFFF7EAFF06
:100AA00034BF012000205DF808FB00BF4DF808EDC1
:100AB000FFF7E0FF94BF012000205DF808FB00BFB6
:100AC0004DF808EDFFF7CEFF94BF012000205DF840
:100AD00008FB00BF4DF808EDFFF7C4FF34BF01204D
:100AE00000205DF808FB00BF4FEA410C7FEA6C5C18
:100AF00002D150EA013C0AD14FEA430C7FEA6C5C18
:100B000002D152EA033C02D14FF0000070474FF08F
:100B1000010070474FEA410212F5001215D211D5BB
:100B20006FF47873B3EB625212D94FEAC12343F0EA
:100B3000004343EA505311F0004F23FA02F018BF6C
:100B4000404270474FF00000704750EA013005D135
:100B500011F0004008BF6FF0004070474FF00000F8
:100B6000704700BF53B94AB9002908BF00281CBF0D
:100B70004FF0FF314FF0FF3000F076B9ADF1080CC7
:100B80006DE904CE00F006F8DDF804E0DDE90223AB
:100B900004B070472DE9F047089E0D46044688468C
:100BA000002B4DD18A42944668D9B2FA82F252B1F2
:100BB00001FA02F3C2F1200120FA01F10CFA02FC61
:100BC00041EA030894404FEA1C41B8FBF1F71FFAD1
:100BD0008CFE01FB178807FB0EF0230C43EA084349
:100BE00098420AD91CEB030307F1FF3580F01E8100
:100BF000984240F21B81023F63441B1AB3FBF1F0A1
:100C000001FB103300FB0EFEA4B244EA0344A645E8
:100C10000AD91CEB040400F1FF3380F00981A645DA
:100C200040F20681644402380021A4EB0E0440EA3D
:100C300007401EB10023D440C6E90043BDE8F08759
:100C40008B4208D9002E00F0EE800021C6E9000595
:100C50000846BDE8F087B3FA83F100294AD1AB42D8
:100C600002D3824200F2FC80841A65EB0303012068
:100C70009846002EE2D0C6E90048DFE702B9FFDE61
:100C8000B2FA82F2002A40F09180A1EB0C0001211F
:100C90004FEA1C471FFA8CFEB0FBF7F307FB13006B
:100CA000250C45EA00450EFB03F0A84208D91CEBD1
:100CB000050503F1FF3802D2A84200F2CE80434678
:100CC0002D1AB5FBF7F007FB10550EFB00FEA4B282
:100CD00044EA0544A64508D91CEB040400F1FF359D
:100CE00002D2A64500F2B6802846A4EB0E0440EAE4
:100CF00003409EE7C1F120078B4022FA07FC4CEA33
:100D0000030C25FA07FA4FEA1C49BAFBF9F820FA56
:100D100007F309FB18AA8D401FFA8CFE1D4300FA49
:100D200001F308FB0EF02C0C44EA0A44A04202FA3C
:100D300001F20BD91CEB040408F1FF3A80F0888023
:100D4000A04240F28580A8F102086444241AB4FB52
:100D5000F9F009FB104400FB0EFEADB245EA044475
:100D6000A64508D91CEB040400F1FF356CD2A6455A
:100D70006AD90238644440EA0840A0FB0295A4EB1B
:100D80000E04AC42C846AE4656D353D0002E69D0AE
:100D9000B3EB080264EB0E0422FA01F304FA07F73E
:100DA0001F43CC40C6E90074002147E70CFA02FC5F
:100DB000C2F1200125FA01F34FEA1C4720FA01F1A4
:100DC00095400D43B3FBF7F107FB11331FFA8CFE7F
:100DD000280C40EA034001FB0EF3834204FA02F4BC
:100DE00008D91CEB000001F1FF382FD283422DD926
:100DF00002396044C01AB0FBF7F307FB1300ADB231
:100E000045EA004503FB0EF0A84208D91CEB050596
:100E100003F1FF3816D2A84214D9023B6544281AC0
:100E200043EA014138E73146304607E72F46E4E61A
:100E30001846F9E64B45A9D2B9EB020865EB0C0E52
:100E40000138A3E74346EAE7284694E74146D1E75D
:100E5000D0467BE76444023847E7023B65442FE70E
:100E6000084606E73146E9E6704700BF00B583B0A3
:100E7000164B5A6942F001025A615B6903F00103A3
:100E80000193019B002211460E2000F0C3FC0E20AE
:100E900000F0F8FC002211460F2000F0BBFC0F20F0
:100EA00000F0F0FC00221146102000F0B3FC1020EE
:100EB00000F0E8FC00221146112000F0ABFC1120EC
:100EC00000F0E0FC03B05DF804FB00BF001002403E
:100ED00030B589B0002404940594069407941D4B02
:100EE0009A6942F010029A619A6902F01002019226
:100EF000019A9A6942F020029A619A6902F02002EE
:100F00000292029A9A6942F004029A619B6903F084
:100F100004030393039B104D01224FF48171284673
:100F200000F07CFF0223049311230593069403240D
:100F3000079404A9284600F05FFE4FF480730493E1
:100F4000012305930693079404A9284600F054FE54
:100F500009B030BD001002400008014072B6FEE743
:100F600000B591B02822002106A802F069F90023FB
:100F700001930293039304930593012206924FF485
:100F8000803307930A9202220D920E934FF480133E
:100F90000F9306A800F05EFF88B90F230193022388
:100FA0000293002303934FF480620492059301217E
:100FB00001A801F081F920B911B05DF804FBFFF739
:100FC000CDFFFFF7CBFF000008B500F0EDFBFFF70A
:100FD000C7FFFFF77DFFFFF749FF00F0F3F900F0CF
:100FE000D7F900F07FF90C480268D36843F010038A
:100FF000D3604FF40062094902F0E4F8084802683F
:10100000D36843F01003D3604FF40062054902F047
:10101000D9F800F097FBFEE7501B0020F4090020F0
:10102000981B0020F411002082B00E4B9A6942F008
:1010300001029A619A6902F001020092009ADA694B
:1010400042F08052DA61DB6903F080530193019B27
:10105000054A536823F0E06343F00073536002B025
:10106000704700BF0010024000000140FEE7FEE7AD
:10107000FEE7FEE7FEE770477047704708B500F0EF
:10108000A5FB08BD08B5024800F014FD08BD00BF6F
:10109000841A002008B5024800F00CFD08BD00BF0E
:1010A000401A002008B5024800F004FD08BD00BF4A
:1010B000C81A002008B5024800F0FCFC08BD00BFBB
:1010C0000C1B002008B5024801F051FA08BD00BF12
:1010D000F819002010B582B01B4C204601F080FEAC
:1010E00023681A6812F0100F07D1174B1B681B6892
:1010F00013F0400F21D102B010BD002401941A68F2
:1011000001925B680193019B0F4801F041FD22466B
:10111000B2F5006F04DA0D4B9B5C0BB10132F7E7BF
:101120000A4C92B221460A4801F0F0FC4FF40062EA
:101130002146054802F046F8D7E74FF40062002147
:10114000044802F07DF8D6E7501B0020F409002087
:10115000981B0020F411002030B583B01C4C2046B1
:1011600001F03EFE23681A6812F0100F07D1184BE9
:101170001B681B6813F0400F23D103B030BD00245F
:1011800001941A6801925B680193019B104801F079
:10119000FFFCB4F5006F04DA0E4B1B5D0BB101349C
:1011A000F7E70C4D284600F097FAA2B229460A4804
:1011B00001F0ACFC4FF400622946054802F002F849
:1011C000D5E74FF400620021044802F039F8D4E773
:1011D000981B0020F4110020501B0020F40900206F
:1011E00008B50B4B834200D008BD0A4B1B7813B1E6
:1011F00000F038FAF8E7084B1A78084B53F8220049
:1012000000F008FA064A137801331370ECE700BFC8
:10121000F8190020E11B0020E01B0020080000203E
:10122000E21B00200120704708B501F0DFFF162304
:1012300003604FF0FF3008BD08B54FF0FF31FFF7F6
:10124000F3FFFEE770B50C461646002506E0AFF347
:101250000080214601F8010B01350C46B542F6DB52
:10126000304670BD70B50C461646002504E014F8F3
:10127000010BAFF300800135B542F8DB304670BD9D
:101280004FF0FF3070474FF400534B600020704721
:10129000012070470020704710B503460C4A0D49E5
:1012A0000D48006840B10C4800680344521A93424C
:1012B00006D8094A136010BD0748084C0460F2E7DD
:1012C00001F094FF0C2303604FF0FF30F3E700BF01
:1012D0000050002000100000F4190020301C0020F5
:1012E0007047000000B587B0002302930393049376
:1012F00005930093019316484FF0804202604CF230
:1013000050324260836040F6CC42C2600361836128
:1013100001F024FA90B94FF48053029302A90C48CB
:1013200001F054FA68B90023009301936946084814
:1013300001F0CCFA40B907B05DF804FBFFF70EFEF0
:10134000E9E7FFF70BFEEEE7FFF708FEF3E700BF64
:10135000F81900200368B3F1804F00D0704700B542
:1013600083B003F50433DA6942F00102DA61DB6924
:1013700003F001030193019B002211461C2000F0A1
:1013800049FA1C2000F07EFA03B05DF804FB00006F
:1013900008B50A480A4B03604FF4E1334360002369
:1013A0008360C36003610C2242618361C36101F009
:1013B0007DFB00B908BDFFF7D1FDFBE7501B002006
:1013C0000038014008B50A480A4B03604FF4E13386
:1013D000436000238360C36003610C224261836128
:1013E000C36101F063FB00B908BDFFF7B7FDFBE780
:1013F000981B00200044004070B588B004460023CC
:1014000004930593069307930368634A934204D0B9
:10141000624A934261D008B070BD614B9A6942F450
:1014200080429A619A6902F480420092009A9A6915
:1014300042F004029A619B6903F004030193019B4B
:101440004FF4007304930223059303230793554E2F
:1014500004A9304600F0D0FB4FF4806304930025CC
:101460000595069504A9304600F0C6FB4E484F4B43
:101470000360456085608023C360056145618561C7
:101480004FF48053C36100F035FA00BB464BE36371
:101490005C624748474B036010234360002383602E
:1014A0008022C2600361436183614FF48053C36152
:1014B00000F020FA70B93E4BA3635C620022114633
:1014C000252000F0A7F9252000F0DCF9A3E7FFF7BD
:1014D00045FDDBE7FFF742FDEDE7314BDA6942F40A
:1014E0000032DA61DA6902F400320292029A9A69F1
:1014F00042F004029A619B6903F004030393039B87
:10150000042304930223059303230793254E04A980
:10151000304600F071FB08230493002505950695DD
:1015200004A9304600F068FB2348244B0360456063
:1015300085608023C3600561456185614FF48053F8
:10154000C36100F0D7F900BB1B4BE3635C621C482E
:101550001C4B036010234360002383608022C26021
:101560000361436183614FF48053C36100F0C2F9AA
:1015700070B9134BA3635C6200221146262000F071
:1015800049F9262000F07EF945E7FFF7E7FCDBE7A5
:10159000FFF7E4FCEDE700BF0038014000440040E5
:1015A0000010024000080140401A0020580002408C
:1015B000841A002044000240C81A00206C00024037
:1015C0000C1B002080000240FFF78AFE0B480C49EC
:1015D0000C4A002302E0D458C4500433C4188C428F
:1015E000F9D3094A094C002301E013600432A242F6
:1015F000FBD301F001FEFFF7E7FC7047000000207D
:10160000D8090020F49D0008D8090020301C0020D3
:10161000FEE7000010B5044601F004FF82B2214647
:10162000014801F073FA10BD981B002010B5044664
:10163000094902F081F820B100220221074800F098
:10164000EDFB0749204602F077F820B10122022184
:10165000024800F0E3FB10BD889800080008014034
:101660009098000808B50248FFF7D4FF08BD00BFF6
:101670009898000810B5ADF5327D00248094C422FE
:10168000214681A801F0DCFDACB1002103914FF4AB
:10169000F87204A801F0D4FD80AB00930A4B1B68DC
:1016A0000A4A0B4903A801F01DFE03A8FFF7B2FF89
:1016B0000DF5327D10BD074B53F8241080A801F0C2
:1016C00033FE0134E0E700BF20000020A0980008AE
:1016D000A49800080400002008B5154B1B789BB99E
:1016E000144902F029F8F0B1134800F023FF134A1F
:1016F00013780133DBB21370052B08D8104A52F867
:101700002300FFF787FF08BDFFF790FFFBE7084BBB
:1017100001221A70084800F0D9FEFFF7ABFF074B13
:1017200000221A70EFE7044800F0D0FEEBE700BF9C
:10173000E11B0020C0980008F8190020E01B0020E1
:101740000800002008B508220249034801F0DEF92C
:1017500008BD00BFC4980008981B002010B50446BF
:101760000E4B18784FF47A73B3FBF0F30C4A106801
:10177000B0FBF3F000F094F868B90F2C01D9012008
:101780000AE0002221464FF0FF3000F043F8054BFD
:101790001C60002000E0012010BD00BF24000020DC
:1017A000000000202800002008B5074A136843F015
:1017B00010031360032000F01BF80F20FFF7CEFF8B
:1017C000FFF732FC002008BD00200240034A1168E8
:1017D000034B1B780B441360704700BFE41B0020D1
:1017E00024000020014B1868704700BFE41B002054
:1017F000074AD36823F4E0631B041B0C000200F4C7
:10180000E060034343F0BF6343F40033D3607047A9
:1018100000ED00E000B5194BDB68C3F30223C3F110
:10182000070CBCF1040F28BF4FF0040C03F1040EA9
:10183000BEF1060F18D9033B4FF0FF3E0EFA0CFC29
:1018400021EA0C0199400EFA03F322EA030319433B
:1018500000280BDB0901C9B200F1604000F56140CE
:1018600080F800135DF804FB0023E5E700F00F00AB
:101870000901C9B2024B1954F4E700BF00ED00E0C2
:1018800014ED00E0002807DB00F01F0240090123EF
:101890009340024A42F82030704700BF00E100E068
:1018A0000138B0F1807F0BD24FF0E0235861054A38
:1018B000F02182F823100020986107221A617047F6
:1018C0000120704700ED00E030B40124056CAC400D
:1018D000C56B6C60046863604368102B05D00368B7
:1018E00099600368DA6030BC704703689A600368E7
:1018F000D960F8E760B310B402460168154B0B4499
:101900001548A0FB03031B099B001364134BD3630F
:10191000022382F82130086820F47F5020F0300044
:10192000536894682343D468234314692343546958
:10193000234394692343D469234303430B6000206A
:101940009063012382F8213082F8200010BC704798
:1019500001207047F8FFFDBFCDCCCCCC0000024089
:1019600038B5044690F82000012832D0012084F8D0
:10197000200094F82100C0B2012804D0002384F88C
:101980002030022038BD022084F821000020A0630E
:101990002568286820F0010028602046FFF794FFA2
:1019A000E36A5BB12268136843F00E031360226898
:1019B000136843F0010313600020E3E72268136813
:1019C00023F0040313602268136843F00A031360D2
:1019D000EDE70220D6E790F82130DBB2022B06D0EB
:1019E00004238363002380F82030012070470268BD
:1019F000136823F00E0313600268136823F00103D9
:101A00001360036CC16B012202FA03F34B6080F890
:101A10002120002380F820301846704708B590F840
:101A20002130DBB2022B03D004238363012008BDE5
:101A30000268136823F00E0313600268136823F032
:101A4000010313600368194A934214D0143293427D
:101A50001FD0143293421ED0143293421ED014323F
:101A600093421ED01432934202D04FF0807203E0B2
:101A70004FF4801200E001220D4B5A60012380F8E0
:101A80002130002380F82030436B6BB19847002051
:101A9000CDE71022F0E74FF48072EDE74FF480526B
:101AA000EAE74FF48032E7E70020C0E70800024091
:101AB0000000024038B5C36B1A6804682568016CE1
:101AC00004238B40134235D015F0040F32D0236825
:101AD00013F0200F03D1236823F00403236003686D
:101AE000434A934214D01432934218D01432934292
:101AF00017D01432934217D01432934217D01432B5
:101B0000934202D04FF0806203E04FF4800200E085
:101B10000422384B5A60C36A03B1984738BD40224B
:101B2000F7E74FF48062F4E74FF48042F1E74FF4B7
:101B30008022EEE702238B4013423CD015F0020FC7
:101B400039D0236813F0200F06D1236823F00A034D
:101B50002360012380F821300368254A934214D082
:101B6000143293421CD0143293421BD0143293424D
:101B70001BD0143293421BD01432934202D04FF048
:101B8000007203E04FF4001200E00222194B5A6089
:101B9000002380F82030836A002BBFD09847BDE730
:101BA0002022F3E74FF40072F0E74FF40052EDE724
:101BB0004FF40032EAE7082303FA01F11142ADD0F5
:101BC00015F0080FAAD0236823F00E032360026CDF
:101BD000C16B012303FA02F24A60836380F821306B
:101BE000002380F82030036B002B97D0984795E7AF
:101BF000080002400000024070B582B00024A446F4
:101C0000A6E0804DAA4210D007D97F4DAA420CD041
:101C100005F58035AA4208D013E0A5F58015AA4243
:101C200003D005F57025AA4207D18A68002A58D04A
:101C3000012A51D04361082403E0A5F58015AA428A
:101C4000F3D0BEF1FF0F4ED80646BEF1FF0F4CD8C1
:101C50004FEA8C0233680F25954023EA050304FA06
:101C600002F2134333604B6813F0805F6ED0674B12
:101C70009A6942F001029A619B6903F001030193A2
:101C8000019B4FEA9C02951C614B53F825600CF0B8
:101C900003039D000F23AB4026EA03065D4B9842E9
:101CA00029D003F58063984200F08E8003F58063AD
:101CB000984200F08B8003F58063984219D004238A
:101CC0001AE0CC68BDE7CC680434BAE7CC680834C5
:101CD000B7E7CC680C34B4E703610824B1E700240B
:101CE000AFE70424ADE7061DAFE7ACF108029200B0
:101CF000B0E7032300E00023AB4033430232444DFE
:101D000045F822304B6813F4801F61D0424A936833
:101D100043EA0E0393604B6813F4001F5ED03E4A03
:101D2000D36843EA0E03D3604B6813F4003F5BD0E3
:101D3000394A536843EA0E0353604B6813F4803FFB
:101D400058D0354A136843EA0E0313600CF1010CB6
:101D50000A6832FA0CF353D0012303FA0CF302EAB7
:101D6000030E33EA0202F1D14A68122A3FF649AF64
:101D7000122A3FF666AF01A555F822F02B1C000889
:101D8000C31C0008CD1C0008DF1C0008431C000811
:101D9000431C0008431C0008431C0008431C0008A7
:101DA000431C0008431C0008431C0008431C000897
:101DB000431C0008431C0008431C0008431C000887
:101DC000C71C0008D31C0008012395E7022393E7F2
:101DD000114A936823EA0E0393609CE70E4AD36886
:101DE00023EA0E03D3609FE70B4A536823EA0E03EE
:101DF0005360A2E7084A136823EA0E031360A5E7BD
:101E000002B070BD0000221000003110001002402E
:101E10000000014000080140000401400AB10161D6
:101E2000704709040161704782B0084B1B68084A7B
:101E3000A2FB03235B0A00FB03F3019300BF019B9A
:101E40005A1E0192002BF9D102B070470000002009
:101E5000D34D6210002800F0F18170B582B00446C5
:101E6000036813F0010F2CD0994B5B6803F00C034F
:101E7000042B1DD0964B5B6803F00C03082B12D08B
:101E80006368B3F5803F41D0002B55D103F1804307
:101E900003F504331A6822F480321A601A6822F4B7
:101EA00080221A6037E08A4B5B6813F4803FE7D0EA
:101EB000874B1B6813F4003F03D06368002B00F0CE
:101EC000BF81236813F0020F75D0814B5B6813F05C
:101ED0000C0F5FD07E4B5B6803F00C03082B54D0D3
:101EE0002369002B00F08A807A4B01221A60FFF7E9
:101EF00079FC0546764B1B6813F0020F75D1FFF78E
:101F000071FC401B0228F5D903209EE1704A13683A
:101F100043F480331360636843B3FFF763FC054603
:101F20006B4B1B6813F4003FCBD1FFF75BFC401BEE
:101F30006428F5D9032088E1B3F5A02F09D0644BBC
:101F40001A6822F480321A601A6822F480221A6019
:101F5000E1E703F18043A3F53C331A6842F48022A1
:101F60001A601A6842F480321A60D4E7FFF73AFC2C
:101F70000546574B1B6813F4003FA2D0FFF732FC15
:101F8000401B6428F5D903205FE1514B5B6813F4D3
:101F9000803FA5D14E4B1B6813F0020F03D023697D
:101FA000012B40F04F814A4A136823F0F80361691E
:101FB00043EAC1031360236813F0080F33D0A36909
:101FC000002B5CD0434B0122C3F88024FFF70AFCAE
:101FD00005463F4B5B6A13F0020F21D1FFF702FC6D
:101FE000401B0228F5D903202FE1394A136823F05A
:101FF000F803616943EAC1031360DCE7354B002253
:102000001A60FFF7EFFB0546314B1B6813F0020F18
:10201000D1D0FFF7E7FB401B0228F5D9032014E1DC
:102020000120FFF701FF236813F0040F00F09680F2
:10203000274BDB6913F0805F34D1254BDA6942F01E
:102040008052DA61DB6903F080530193019B012523
:10205000214B1B6813F4807F26D0E368012B3DD011
:10206000002B53D103F1804303F504331A6A22F0A5
:1020700001021A621A6A22F004021A6233E0154B56
:102080000022C3F88024FFF7ADFB0546104B5B6AC6
:1020900013F0020FC7D0FFF7A5FB401B0228F5D9AC
:1020A0000320D2E00025D3E70B4A136843F4807382
:1020B0001360FFF797FB0646074B1B6813F4807FFE
:1020C000CBD1FFF78FFB801B6428F5D90320BCE040
:1020D0000010024000004242007000405F4A136A54
:1020E00043F001031362E36833B3FFF77BFB06465B
:1020F0005A4B1B6A13F0020F2FD1FFF773FB801BA3
:1021000041F288339842F3D903209EE0052B09D091
:10211000524B1A6A22F001021A621A6A22F0040271
:102120001A62E0E74D4B1A6A42F004021A621A6A18
:1021300042F001021A62D6E7FFF754FB0646474B0E
:102140001B6A13F0020F08D0FFF74CFB801B41F213
:1021500088339842F3D9032077E0E5B9E369002B8F
:1021600072D03E4A526802F00C02082A56D0022B66
:1021700017D03B4B00221A66FFF734FB0446374B5F
:102180001B6813F0007F47D0FFF72CFB001B0228D1
:10219000F5D9032059E0314AD36923F08053D36144
:1021A000DCE72F4B00221A66FFF71CFB05462B4B82
:1021B0001B6813F0007F06D0FFF714FB401B0228BA
:1021C000F5D9032041E0236AB3F5803F1AD02349B3
:1021D0004B6823F47413226A606A024313434B6012
:1021E0001F4B01221A66FFF7FDFA04461B4B1B68C2
:1021F00013F0007F0ED1FFF7F5FA001B0228F5D986
:10220000032022E0154A536823F40033A1680B43EE
:102210005360DCE7002018E0002016E0012B16D008
:102220000E4B5B6803F48031226A914211D103F4B2
:102230007013626A93420ED1002006E001207047BD
:10224000012002E0012000E0002002B070BD01206A
:10225000FBE70120F9E70120F7E700BF001002408B
:10226000000042420F4B5B6803F00C02082A01D0C9
:102270000D487047C3F383420C49885C13F4803FD8
:102280000BD0084B5B68C3F34043094AD35C064A52
:1022900002FB00F0B0FBF3F07047064B03FB00F0CD
:1022A000704700BF0010024000127A00D099000869
:1022B000E099000800093D00002800F0A08070B5FA
:1022C0000D460446524B1B6803F007038B420BD2AA
:1022D0004F4A136823F007030B431360136803F09E
:1022E00007038B4240F08D80236813F0020F17D054
:1022F00013F0040F04D0474A536843F4E06353607B
:10230000236813F0080F04D0424A536843F4605323
:102310005360404A536823F0F003A1680B435360B5
:10232000236813F0010F31D06368012B20D0022BFA
:1023300025D0384A126812F0020F64D035494A6835
:1023400022F0030213434B60FFF74CFA0646314B71
:102350005B6803F00C036268B3EB820F16D0FFF7E3
:1023600041FA801B41F288339842F0D9032045E0BE
:10237000284A126812F4003FE0D101203EE0254ACD
:10238000126812F0007FD9D1012037E0204B1B6882
:1023900003F00703AB420AD91D4A136823F0070371
:1023A0002B431360136803F00703AB422DD123685E
:1023B00013F0040F06D0174A536823F4E063E16872
:1023C0000B435360236813F0080F07D0114A53687A
:1023D00023F46053216943EAC1035360FFF742FFCE
:1023E0000C4B5B68C3F303130B4AD35CD8400B4B15
:1023F00018600B4B1868FFF7B1F9002070BD012081
:1024000070470120FAE70120F8E70120F6E700BF56
:1024100000200240001002407098000800000020D8
:1024200028000020014B1868704700BF0000002002
:1024300008B5FFF7F7FF044B5B68C3F30223034AB9
:10244000D35CD84008BD00BF00100240809800084F
:1024500008B5FFF7E7FF044B5B68C3F3C223034AE9
:10246000D35CD84008BD00BF00100240809800082F
:1024700010B4036A046A24F001040462846924F03D
:10248000F00C4CEA021223F00A030B438261036250
:1024900010BC704710B4036A046A24F0100404628C
:1024A000846924F4704C4CEA023223F0A00343EA1E
:1024B00001138261036210BC7047836823F07003CC
:1024C0000B4343F0070383607047000090F83D30F2
:1024D000DBB2012B27D1022380F83D300268D3689C
:1024E00043F00103D3600368114A934210D0B3F163
:1024F000804F0DD0A2F59432934209D002F580624C
:10250000934205D01A6842F001021A600020704719
:102510009A6802F00702062A07D01A6842F0010200
:102520001A6000207047012070470020704700BFEC
:10253000002C01400268D36823F00103D3600368D4
:10254000196A41F21112114208D1196A40F244424B
:10255000114203D11A6822F001021A60012380F8A7
:102560003D3000207047704770477047704710B586
:10257000044603681A6912F0020F11D0DA6812F0EB
:10258000020F0DD06FF002021A6101230377036876
:102590009B6913F0030F70D0FFF7E6FF002323774A
:1025A00023681A6912F0040F12D0DA6812F0040FCF
:1025B0000ED06FF004021A610223237723689B690F
:1025C00013F4407F5FD02046FFF7CEFF0023237730
:1025D00023681A6912F0080F12D0DA6812F0080F97
:1025E0000ED06FF008021A61042323772368DB6999
:1025F00013F0030F4ED02046FFF7B6FF00232377DA
:1026000023681A6912F0100F12D0DA6812F0100F56
:102610000ED06FF010021A61082323772368DB695C
:1026200013F4407F3DD02046FFF79EFF0023237721
:1026300023681A6912F0010F03D0DA6812F0010F53
:1026400036D123681A6912F0800F03D0DA6812F0CD
:10265000800F34D123681A6912F0400F03D0DA6872
:1026600012F0400F32D123681A6912F0200F03D004
:10267000DA6812F0200F30D110BDFFF774FF20464A
:10268000FFF773FF8AE72046FFF76DFF2046FFF74D
:102690006CFF9BE72046FFF766FF2046FFF765FFCC
:1026A000ACE72046FFF75FFF2046FFF75EFFBDE780
:1026B0006FF001021A612046FEF792FDC1E76FF04C
:1026C00080021A61204600F038F9C3E76FF040023B
:1026D0001A612046FFF74AFFC5E76FF020021A6132
:1026E000204600F029F9C7E703681B4A90420AD048
:1026F000B0F1804F07D0A2F59432904203D002F59A
:102700008062904203D123F070034A681343124A57
:1027100090420AD0B0F1804F07D0A2F59432904297
:1027200003D002F58062904203D123F44073CA685B
:10273000134323F080034A69134303608B68C36229
:102740000B688362044B984202D0012343617047B7
:102750000B690363F9E700BF002C014040B310B5DB
:10276000044690F83D30F3B1022384F83D30214611
:1027700051F8040BFFF7B8FF012384F8463084F8C2
:102780003E3084F83F3084F8403084F8413084F89B
:10279000423084F8433084F8443084F8453084F87B
:1027A0003D30002010BD80F83C30FEF7D3FDDBE764
:1027B0000120704710B4846824F47F4C42EA03225D
:1027C0000A4342EA0C02826010BC704790F83C3029
:1027D000012B78D010B50446012380F83C30022349
:1027E00080F83D300268936823F47F4323F0770339
:1027F00093600B68602B4CD029D8402B54D00CD957
:10280000502B22D1CA6849680068FFF731FE502179
:102810002068FFF752FE002005E0202B0DD009D9DB
:10282000302B0AD00120012384F83D30002384F8A6
:102830003C3010BD0BB1102B05D119462068FFF7B5
:102840003CFE0020EFE70120EDE70120EBE7B3F5C8
:10285000805F34D0B3F5005F0CD1CB684A688968DB
:102860000068FFF7A7FF2268936843F480439360F2
:102870000020D8E7702B24D1CB684A6889680068AB
:10288000FFF798FF2268936843F077039360002076
:10289000C9E7CA6849680068FFF7FCFD6021206845
:1028A000FFF70BFE0020BEE7CA6849680068FFF723
:1028B000DFFD40212068FFF700FE0020B3E7002085
:1028C000B1E70120AFE702207047000090F83C30EC
:1028D000012B2CD010B4012380F83C30022380F867
:1028E0003D3003685A689C6822F0700C0A6842EA1E
:1028F0000C025A6003680F4A93420AD0B3F1804F2A
:1029000007D0A2F59432934203D002F5806293423D
:1029100004D124F080044A6814439C60012380F8A9
:102920003D30002380F83C30184610BC7047022030
:10293000704700BF002C014070477047026802F1E9
:102940000C0353E8003F23F0C0030C3242E800318F
:102950000029F3D1202380F841307047026802F14A
:102960000C0353E8003F23F490730C3242E800312B
:102970000029F3D1026802F1140353E8003F23F069
:102980000103143242E800310029F3D1036B012B1B
:1029900005D0202380F8423000230363704702688B
:1029A00002F10C0353E8003F23F010030C3242E81D
:1029B00000310029F3D1ECE790F84130DBB2212B54
:1029C00001D0022070478368B3F5805F17D0036A97
:1029D0005A1C02621A7803685A60C38C9BB2013B8E
:1029E0009BB2C3844BB90268D36823F08003D360E1
:1029F0000268D36843F04003D36000207047036946
:102A0000002BE4D1036A1B880268C3F308035360F8
:102A1000036A02330362E0E710B5044602681369F3
:102A200023F44053C1680B43136183680269134365
:102A300042691A430168CB6823F4B05323F00C03B6
:102A40001343CB600268536923F4407381690B43DD
:102A500053610268134B9A4220D0FFF7E9FC02460B
:102A600002EB820202EB820263689B00B2FBF3F28C
:102A70000D48A0FB02314909642303FB11231B010C
:102A80003233A0FB03235B0903F0F00202EB0112D7
:102A900003F00F03216813448B6010BDFFF7D8FCCF
:102AA0000246DDE7003801401F85EB5160B310B5E9
:102AB000044690F8413013B3242384F8413022684F
:102AC000D36823F40053D3602046FFF7A5FF2268A4
:102AD000136923F4904313612268536923F02A0396
:102AE00053612268D36843F40053D36000206064CC
:102AF000202384F8413084F84230606310BD80F8B0
:102B00004030FEF779FCD7E70120704738B590F8E0
:102B10004130DBB2202B30D1044600292FD00AB936
:102B2000012038BD01628284C284002343642120D5
:102B300084F84100A06B134D8562A06B124DC562F5
:102B4000A06B124D0563A06B436320681346021D02
:102B5000A06BFEF705FF23686FF040021A60226841
:102B600002F1140353E8003F43F08003143242E8BB
:102B700000310029F3D10020D3E70220D1E7012062
:102B8000CFE700BF172C00087F2C00088F2C00080F
:102B900010B5044603685A6990F84130DBB2212B26
:102BA0000AD023685A6902F0400294F84230DBB23E
:102BB000222B19D0002010BD02F08002002AF0D094
:102BC000226802F1140353E8003F23F0800314321B
:102BD00042E800310029F3D1A06B08B1FEF7FBFEFB
:102BE0002046FFF7ABFEDCE7002AE3D0226802F1C3
:102BF000140353E8003F23F04003143242E800314D
:102C00000029F3D1E06B08B1FEF7E5FE2046FFF79F
:102C1000A5FECFE7704708B50346406A1B681B68EE
:102C200013F0200F1AD10023C384026802F11403A9
:102C300053E8003F23F08003143242E800310029BA
:102C4000F3D1026802F10C0353E8003F43F0400364
:102C50000C3242E800310029F3D108BDFFF7DAFF5A
:102C6000FBE708B50168CA6822F04002CA6020226A
:102C700080F84120FFF7CEFF002008BD704708B55F
:102C8000406AFFF7FBFF08BD70477047704710B5FB
:102C9000446A23685A6994F84130DBB2212B10D082
:102CA00023685A6902F0400294F84230DBB2222BCA
:102CB00011D0636C43F0100363642046FFF7E6FF16
:102CC00010BD02F08002002AEAD00023E3842046EF
:102CD000FFF734FEE4E7002AEBD00023E38520462B
:102CE000FFF73CFEE5E708B5406A0023C385C384CF
:102CF000FFF7CCFF08BD704790F84230DBB2222BC3
:102D000069D18368B3F5805F4FD0826AB3F5805F85
:102D100004D0002B56D10369002B53D103685B68A4
:102D20001370836A01338362C38D9BB2013B9BB2F4
:102D3000C385002B51D100B583B00268D36823F05E
:102D40002003D3600268D36823F48073D3600268E1
:102D5000536923F001035361202380F8423000239C
:102D60004363036B012B33D100230363026802F139
:102D70000C0353E8003F23F010030C3242E800310B
:102D80000029F3D103681A6812F0100F06D0002250
:102D900001921A6801925B680193019B818DFFF794
:102DA000AAFF002003B05DF804FB0269002AACD141
:102DB000826A03685B68C3F308031380836A023383
:102DC0008362B1E703685B6803F07F031370A8E7D1
:102DD000FFF75AFFE5E70220704700207047000028
:102DE00030B583B0044602681368D068516913F0A7
:102DF0000F0505D113F0200F02D010F0200F19D1CC
:102E00002DB111F0010119D110F4907F16D1216B71
:102E100001297DD013F0800F03D010F0800F40F017
:102E2000188113F0400F03D010F0400F40F01581CF
:102E300003B030BD2046FFF75FFFF9E713F0010F45
:102E400006D010F4807F03D0626C42F0010262640D
:102E500013F0040F04D019B1626C42F002026264F4
:102E600013F0020F04D019B1626C42F004026264E4
:102E700013F0080F07D010F0200F00D119B1626CC9
:102E800042F008026264626C002AD1D013F0200F75
:102E900002D010F0200F29D123685B6903F04003B2
:102EA000626C12F0080F00D163B32046FFF756FDA5
:102EB00023685B6913F0400F20D0226802F11403ED
:102EC00053E8003F23F04003143242E80031002968
:102ED000F3D1E36B73B1634A5A63E06BFEF79EFD77
:102EE0000028A5D0E06B436B9847A1E72046FFF789
:102EF00003FFD1E72046FFF7C9FE99E72046FFF719
:102F0000C5FE95E72046FFF7C1FE002363648FE707
:102F100013F0100F3FF47EAF10F0100F3FF47AAFB4
:102F2000002301931368019353680193019B536934
:102F300013F0400F51D0E26B13685B689BB2002B1B
:102F40003FF476AFA18D99427FF672AFE385936926
:102F5000202B37D0226802F10C0353E8003F23F402
:102F600080730C3242E800310029F3D1226802F16B
:102F7000140353E8003F23F00103143242E8003108
:102F80000029F3D1226802F1140353E8003F23F033
:102F90004003143242E800310029F3D1202384F8A1
:102FA000423000232363226802F10C0353E8003F00
:102FB00023F010030C3242E800310029F3D1E06B1A
:102FC000FEF709FD02236363A18DE38D9BB2C91A4D
:102FD00089B22046FFF78FFE2AE7A18DE38D9BB2D1
:102FE000C91A89B2E38D9BB2002B3FF421AF0029AF
:102FF0003FF41EAF226802F10C0353E8003F23F4B4
:1030000090730C3242E800300028F3D1226802F1BC
:10301000140353E8003F23F00103143242E8003068
:103020000028F3D1202384F8423000232363226850
:1030300002F10C0353E8003F23F010030C3242E886
:1030400000300028F3D1022363632046FFF753FECC
:10305000EEE62046FFF7B0FCEAE62046FFF701FE69
:10306000E6E600BFE72C000808B5406A0123436389
:10307000036B012B02D0FFF708FE08BD818D4908C4
:10308000FFF739FEF9E708B50346406A1B681B687D
:1030900013F0200F2BD10023C385026802F10C032B
:1030A00053E8003F23F480730C3242E800310029DA
:1030B000F3D1026802F1140353E8003F23F0010347
:1030C000143242E800310029F3D1026802F11403FE
:1030D00053E8003F23F04003143242E80031002956
:1030E000F3D1202380F84230036B012B07D000235B
:1030F0004363036B012B0FD0FFF7C6FD08BD0268C9
:1031000002F10C0353E8003F23F010030C3242E8B5
:1031100000310029F3D1EAE7818DFFF7ECFDEDE7FF
:1031200030B583B00446134681628285002545642C
:10313000222280F84220C26B1F489062E26B1F4837
:10314000D062E26B1E481063E26B556320680A464A
:10315000011DE06BFEF704FC019523681A680192DB
:103160005B680193019B23695BB1226802F10C0348
:1031700053E8003F43F480730C3242E800310029E9
:10318000F3D1226802F1140353E8003F43F0010336
:10319000143242E800310029F3D1226802F114030D
:1031A00053E8003F43F04003143242E80031002965
:1031B000F3D1002003B030BD87300008693000082B
:1031C0008F2C000808B590F84230DBB2202B08D1D4
:1031D00049B10AB9012008BD00230363FFF7A0FF2E
:1031E000F9E70220F7E70120F5E70000014B186836
:1031F000704700BF2C00002070B50D4E0D4D761BA2
:10320000B61006D0002455F8043B01349847A64276
:10321000F9D1094E094D06F01FFB761BB61006D0FA
:10322000002455F8043B01349847A642F9D170BDFB
:10323000E89D0008E89D0008F09D0008E89D000852
:10324000830730B548D0541E002A3FD00346CAB287
:1032500001E0013C3AD303F8012B9D07F9D1032C7F
:103260002DD9CDB245EA05250F2C45EA054536D9BD
:10327000A4F1100222F00F0C03F1200EE6444FEAF5
:10328000121C03F1100242E9045542E902551032C2
:103290007245F8D10CF1010214F00C0F03EB02128D
:1032A00004F00F0C13D0ACF1040323F00303043338
:1032B000134442F8045B9342FBD10CF003042CB19D
:1032C000CAB21C4403F8012B9C42FBD130BD6446BA
:1032D0001346002CF4D1F9E703461446BFE71A461B
:1032E000A446E0E70EB430B504466FF000459CB04C
:1032F0000B4A1FAB0B49059253F8042B086802A92F
:10330000CDE9013407950495069400F0C7FA002230
:10331000029B1A701CB0BDE8304003B0704700BF7C
:103320000802FFFF2C000020830710B5044610D1CF
:103330000268A2F1013323EA020313F0803F08D1AF
:1033400050F8042FA2F1013323EA020313F0803F67
:10335000F6D003781BB110F8013F002BFBD100F031
:1033600003F8204610BD00BF80EA0102844612F037
:10337000030F4FD111F0030F32D14DF8044D11F06E
:10338000040F51F8043B0BD0A3F101329A4312F021
:10339000803F04BF4CF8043B51F8043B16D100BFFA
:1033A00051F8044BA3F101329A4312F0803FA4F18B
:1033B00001320BD14CF8043BA24312F0803F04BF12
:1033C00051F8043B4CF8044BEAD023460CF8013B7F
:1033D00013F0FF0F4FEA3323F8D15DF8044B704729
:1033E00011F0010F06D011F8012B0CF8012B002A67
:1033F00008BF704711F0020FBFD031F8022B12F056
:10340000FF0F16BF2CF8022B8CF8002012F47F4F10
:10341000B3D1704711F8012B0CF8012B002AF9D118
:10342000704700BF20F0030110F00300C0F100005E
:1034300051F8043B00F1040C4FEACC0C6FF0000291
:103440001CBF22FA0CF213434FF0010C4CEA0C2C77
:103450004CEA0C4CA3EB0C0222EA030212EACC1257
:1034600004BF51F8043B0430F4D0C2F1000102EA79
:103470000102B2FA82F2C2F11F0200EBD2007047E1
:103480002DE9F04F012B1D4681460F469046ADF2C7
:103490001C4D40F24781012300219C464FF0FF3430
:1034A0001A4606E019460122A3EB040C8B189D4234
:1034B00010D908EB0400805C18F803608642F1D351
:1034C00000F081804FF0010C62460C4661448B187D
:1034D0009D42EED8CDF808C04FF0010C00204FF00F
:1034E000FF366146634606E018460121A3EB060C51
:1034F00043189D420FD908EB010218F803E0925DD2
:103500009645F1D865D04FF0010C614606466044FF
:1035100043189D42EFD8013604F1010BB34502D8A0
:10352000B346CDF808C005AB0DF2144243F8045F72
:103530009342FBD1002D00F0FA806C1E06AE08F11C
:10354000FF3208EB0400019612F8011FD3432B440D
:103550004344904246F82130F6D1029E5A464046F6
:1035600008EB060103F060FB002840F083800BF1BC
:10357000FF3305938246AB1B0646039309EB060E09
:103580001EF80430019A52F8233043B3BAF1000F09
:1035900004D0029A9342039A38BF13464FF0000AB0
:1035A0001E447B1BB342E9D209EB070045F40061DE
:1035B00004F002F807447B1BB342DFD200200DF277
:1035C0001C4DBDE8F08F94450ABF012201326144D1
:1035D0006CE761450ABF40180131012188E7D345F6
:1035E0005B4638BF5346A34214D2591E9A19414430
:1035F0004A4402E00133A3420CD212F8010B11F845
:1036000001CF8445F6D0CBF1010216444FF0000AF9
:103610001E44C6E7D345059B7DD90BEB06024A4401
:1036200008EB0B01CDF810B002E0534516D003466D
:1036300012F8010D11F801CD03F1010B844503F1DE
:10364000FF30F2D05B46DDF810B00AF1010A9A456E
:103650000BD8029BDDF80CA01E44A2E753460AF1EA
:10366000010A9A45DDF810B0F3D970460DF21C4DF1
:10367000BDE8F08FA5EB0B035B4538BF5B4600262A
:103680000BF1FF3202920133CBF10102039245F4B8
:10369000006A049309EB060E1EF80430019A52F8F2
:1036A00023306BB11E447B1B9E42F3D909EB07000C
:1036B000514603F081FF07447B1B9E42EAD97DE718
:1036C000A34513D202990BEB06025B464A444144E0
:1036D00002E00133A34209D212F8010B11F801CF25
:1036E0008445F6D0039A16441E44DCE7BBF1000F74
:1036F00013D00BEB0601494408EB0B0202E0013B3F
:1037000043450AD0134611F8010D12F801CD844546
:10371000F5D0049BC6E75B4697E770460DF21C4D5B
:10372000BDE8F08F01234FF0000B0293FBE606ABE0
:103730004FF0FF34019310E72DE9F0410D46097871
:10374000044690B0002951D06A78002A00F08180A8
:10375000AB78002B4ED0E878002800F081802B79E0
:10376000002B55D02846FFF75DFE0646204646F45E
:10377000007103F021FF86425AD8FE2E00F28580A8
:10378000801B271840226846711CFFF759FD7EB147
:103790006A1E5FFA86FC901912F8013F10A903F027
:1037A0003F030B44A91A6144824203F8401CF3D141
:1037B000013CA35D10AA03F03F03134413F8400C2F
:1037C0000444A74203D238E04444A74235D314F856
:1037D00006C010AB0CF03F0C9C44204632462946F4
:1037E0001CF8408C03F020FA0028EDD1204610B0E0
:1037F000BDE8F081007842EA014200E00C4640EA70
:103800000343611CA0B19A426078F7D1013CEDE717
:1038100022786AB1296809BA01E099421ED020468F
:1038200042EA032314F8012F002AF6D1994215D059
:103830000024204610B0BDE8F081BB5DB819002B14
:10384000F6D04FF4006103F0B7FE0744BC42AFD995
:10385000EEE710B0BDE8F04103F014BEC41EC5E7AA
:10386000120442EA016242EA03230146207800E0A2
:103870002C4640EA0102651C11020028D8D0B3EBA7
:10388000022F6078F4D1023CB0E7014633462A4665
:10389000204610B0BDE8F041FFF7F2BD2DE9F04F32
:1038A000D5B00C460C9191460E930A9002F0BCFEE6
:1038B000036818461793FFF7B5FDA38916901906FC
:1038C00003D52369002B00F08F8700242BAB224601
:1038D00098464D46CDE929442893129400230024AC
:1038E000CDE914342B78CDE91922CDE91B221892A9
:1038F0000892002B00F0CE81AA4604E01AF8013F9E
:10390000002B00F00981252BF8D1BAEB050640F019
:1039100007819AF80030002B00F0BC8100234FF0A3
:10392000FF324FF02B0920241F469AF801600792BE
:103930000AF1010A8DF8833009930AF1010AA6F110
:1039400020035A2B00F22081DFE813F0CA021E0187
:103950001E01C5021E011E011E01A3021E011E0141
:103960006A00F3021E014702D9021E01D4025B0065
:103970005B005B005B005B005B005B005B005B006F
:103980001E011E011E011E011E011E011E01B001AD
:103990001E010B027A00B001B001B0011E011E0130
:1039A0001E011E019E021E011E01B6001E011E0107
:1039B0001E0119021E014C021E011E013F071E01BD
:1039C0001E011E011E011E011E011E011E01B0016D
:1039D0001E010B027C00B001B001B00191027C001D
:1039E00075001E0184021E017002B8005E0275009F
:1039F0001E01190272001C071E011E011F071E0175
:103A000072000022A6F130031AF8016B02EB820269
:103A100003EB4202A6F13003092BF5D909928EE798
:103A20000E9B53F8042B002A09920E93C0F2D28108
:103A30009AF8006081E79AF8006047F020077CE779
:103A400047F01007BA060E9B40F17D81073323F043
:103A500007031A465B6852F8084B99460E92002BF2
:103A6000C0F27F85079B013301F0398054EA0903D6
:103A700027F0800B00F005850A2C79F1000380F017
:103A8000938701235F4630348DF84F410B930DF23D
:103A90004F15079A0B9900238A42B8BF0A4606922F
:103AA0009DF883200D930F9313931093002A7CD0DD
:103AB000069B0133069378E047F0100717F02009C2
:103AC00000F032810E9B073323F00703D3F80490F4
:103AD00053F8084B0E93002327F4806B00228DF8D7
:103AE0008320079A511C00F02A8254EA09012BF026
:103AF000800740F02382002A41F02B80002B40F009
:103B0000C5841BF001030B9300F0548530230DF2A4
:103B10004F158DF84F31BCE7BAEB050600F0BA80BF
:103B20002A9BC8E9005633442A93299B0133072B6B
:103B3000299305DC08F10808089B33440893E8E65C
:103B40000C990A9828AA03F049FD80B90DF1AC0838
:103B5000F2E70C990A9828AA03F040FD002800F02B
:103B60008A800D9B1BB10D990A9802F05DFC0C9B9D
:103B70009B8913F0400F089B18BF4FF0FF33089349
:103B8000089855B0BDE8F08F002E00F08380012327
:103B900000228DF8EC6006933BAD8DF883200B93EB
:103BA0000D9207920F921392109217F0020302D017
:103BB00006990231069117F0840B07D109990698EE
:103BC000A1EB0009B9F1000F00F336832A9C82B102
:103BD0000122C8F80420299A013401320DF1830131
:103BE000072A2A942992C8F8001000F3698308F183
:103BF00008087BB10223C8F80430299B0234013342
:103C000021AA072B2A942993C8F8002000F36C837B
:103C100008F10808BBF1800F00F02E82079B0B9A79
:103C2000A3EB020BBBF1000F00F37182FB0500F167
:103C3000C5810B9BC8F800501C44C8F80430299B70
:103C40002A940133072B299300F3EA8208F108082C
:103C50007B0705D5099B069A9D1A002D00F350831A
:103C6000DDE9083206998A42ACBF9B185B180893BD
:103C7000002C7FF46EAF002329930D9B1BB10D998F
:103C80000A9802F0D1FB55460DF1AC082B78002BB9
:103C90007FF432AE2A9B002B3FF469AF0C9C0A984C
:103CA000214628AA03F09AFCA38962E70E9B0733FA
:103CB00023F00702F2E80234CDE91434DDE91434CC
:103CC00024F00044994618460E9221464FF0FF32E8
:103CD000B64BFCF709FF002840F096844846214681
:103CE0004FF0FF32B14BFCF7E1FE002840F08C842E
:103CF000DDE9140100220023FCF7CEFE002840F08D
:103D0000A6879DF8832000210320A94DA94B27F009
:103D100080070D910690472EC8BF1D4607910B9056
:103D20000F9113911091C1E617F0100340F06284D7
:103D300017F0400200F07B870E9A994652F8044B28
:103D40000E92A4B2C7E653F8044B0E93FB0600F1A3
:103D500041847D0640F13B8444F3C0394B4624B294
:103D60007DE6012000220E9B069053F8041B3BAD1C
:103D70008DF883208DF8EC100E930B9010E74FF028
:103D800000090E9C079B54F8045B8DF88390002D6E
:103D900000F0EE865A1C00F060851A464946284617
:103DA00002F0FAFE0D90002801F09E800D9B9DF818
:103DB00083205B1B0B9323EAE373CDF81C900E94D6
:103DC0000693CDF83490CDF83C90CDF84C90CDF8DA
:103DD00040906BE6099B5B4209939AF8006047F0BC
:103DE0000407AAE547F0100B1BF0200900F0AA8396
:103DF0000E9B073323F007031A4652F8084BD3F8FB
:103E000004900E92012369E6302278260E9B8DF8ED
:103E1000842053F8044B684A0E934FF000090223A4
:103E200047F0020B8DF88560189257E6BD0600F149
:103E3000D683FC0600F19386780600F15D87B9050C
:103E400040F18D860E9B089953F8042B554611704E
:103E50000E931BE79AF800606C2E03BF9AF801607E
:103E600047F020070AF1010A47F0100765E59AF8C4
:103E70000060682E03BF9AF8016047F400770AF1EA
:103E8000010A47F0400758E59AF8006047F0080734
:103E900053E50A9E304602F0C7FB436818461B9361
:103EA000FFF7C0FA034630461C931E4602F0BCFBE7
:103EB00083681993002E3FF4BBAD199B002B3FF490
:103EC000B7AD199B1B78002B3FF4B2AD9AF8006098
:103ED00047F4806731E59AF8006047F001072CE568
:103EE0009DF88330002B7FF4A3AD9AF800608DF825
:103EF000834022E59AF8006047F080071DE55246AE
:103F000012F8016B2A2E01F0EB81A6F13003092B88
:103F1000924698BF002201F203801AF8016B02EB6F
:103F2000820203EB4202A6F13003092BF5D9079276
:103F300005E59AF800608DF88390FEE4BB46012BFE
:103F40003FF49AAD022B54AD12D1189A04F00F032E
:103F5000D35C240944EA09744FEA191905F8013DB4
:103F600054EA0903F2D154AB5B1B5F460B9390E517
:103F700004F00703E40844EA49744FEAD9093033EE
:103F800054EA09012A4605F8013DF1D11BF0010F61
:103F9000E9D0302BE7D03023023A05F8013C54AB8E
:103FA0009B1A5F4615460B9373E500BFFFFFEF7F3B
:103FB000E8990008EC990008F8990008652E40F38C
:103FC000E980DDE9140100220023FCF75BFD0028F5
:103FD00000F0D2810123C8F80430299BBF4A013385
:103FE0000134072B2A942993C8F8002000F37A851E
:103FF00008F10808229B129A934280F2D782169BFE
:10400000179A1C44C8E90023299B2A940133072BE3
:10401000299300F3DD8308F10808129B5D1E002D33
:104020007FF716AE102D41F34181DFF8B49222469E
:1040300049461026B946299B0F46DDF828B00C9C4E
:1040400005E008F10808103D102D40F358850133B4
:104050001032072BC8E90076CDE92932F1DD21467F
:10406000584628AA03F0BAFA00287FF47AADDDE9B1
:1040700029320DF1AC08E6E7099B069AA3EB020B87
:10408000BBF1000F7FF7CAADBBF1100F41F3058004
:10409000DFF84C9241462046A8464C461023299A08
:1040A0000C9DDDF8289006E0ABF1100BBBF1100F72
:1040B00001F1080119DD01321030072AC1E900437E
:1040C000CDE92920F0DD2946484628AA03F086FAE2
:1040D00000287FF446ADDDE92920ABF1100BBBF1E0
:1040E000100F4FF010032BA9E5DC4546A14688468A
:1040F000044601325C44072ACDE92924C8F800901F
:10410000C8F804B000F3188508F1080886E5BBF18B
:10411000100F40F39785DFF8C89141462046A84626
:104120004C461023299A0C9DDDF8289006E0ABF14F
:10413000100BBBF1100F01F1080119DD0132103035
:10414000072AC1E90043CDE92920F0DD2946484688
:1041500028AA03F043FA00287FF403ADDDE9292003
:10416000ABF1100BBBF1100F4FF010032BA9E5DCE6
:104170004546A1468846044601325C44072ACDE9FB
:104180002924C8F80090C8F804B000F3CE8108F1E3
:1041900008084BE5129B012B40F37E810123299EE9
:1041A00001341E44072EC8F800502A94C8F8043081
:1041B000299600F3E18108F10808169B0136179A49
:1041C0001C44072EC8E90023CDE9296400F3E181EE
:1041D00008F108080022DDE914010023FCF752FC75
:1041E000002840F07681129B0136013B01351C44CA
:1041F000072EC8F800502996C8F804302A9400F316
:104200005B8108F108081A9B01361C44C8F8043089
:10421000072E24ABCDE92964C8F800307FF716AD2E
:104220000C990A9828AA03F0D9F900287FF499ACD0
:104230002A9C0DF1AC080BE5B9F1100F40F3508644
:10424000DDE929214046CDE91D36B84610244F4608
:104250000C9EA9460A9D04E0103F102F00F10800B3
:1042600016DD01321F4B1031072AC0E90034CDE9B9
:104270002921F1DD3146284628AA03F0AFF90028AC
:104280007FF46FACDDE92921103F102F2BA8E8DC6B
:104290004D46DDE91D36B9464746804609EB010427
:1042A00001321049072ACDE92924C8F80490C8F83A
:1042B000001000F3C3839DF8832008F1080886E40A
:1042C0000C990A9828AA1D9303F088F900287FF416
:1042D00048AC2A9C1D9B0DF1AC088AE4289A000882
:1042E0003C9A00082C9A00080C990A9828AA03F016
:1042F00075F900287FF435AC2A9C0DF1AC0889E4EF
:10430000102D40F3C4861026299B0A9FDDF83090BB
:1043100004E0103D102D08F1080817DD0133B84AFC
:104320001034072BC8E90026CDE92934F1DD4946D0
:10433000384628AA03F052F900287FF412ACDDE9D0
:104340002934103D102D0DF1AC08E7DC0133AC4AE7
:104350002C44072BCDE92934C8F80450C8F80020B4
:104360007FF77EAC0C990A9828AA03F037F9002849
:104370007FF4F7AB2A9C73E42299002940F36F8302
:10438000DDF84090129B9945A8BF9946B9F1000FFE
:104390000BDD299B4C440133072BC8E900592A94B3
:1043A000299300F31D8508F10808109EB9F1000F4C
:1043B000A8BFA6EB0906002E00F32582DDF840B069
:1043C0007805AB4400F15F82229B129A934202DB94
:1043D000F90740F17684169A17991444C8E9001237
:1043E000299A2A940132072A299200F3138508F1A9
:1043F0000808129AAE18A6EB0B06D51AAE42A8BF53
:104400002E46002E0DDD299B34440133072BC8F8BE
:1044100000B0C8F804602A94299300F3718508F16C
:104420000808002EA8BFAD1B002D7FF711AC102D82
:1044300040F33C87DFF8CC91224649461026B94626
:10444000299B0F46DDF828B00C9C05E008F1080810
:10445000103D102D40F3538301331032072BC8E970
:104460000076CDE92932F1DD2146584628AA03F02D
:10447000B5F800287FF475ABDDE929320DF1AC0801
:10448000E6E7079B002B7FF4FCAA5F46002354ADB0
:1044900007930B93FFF7FDBAFA073FF57FAE0123B1
:1044A000299E01341E44072EC8F800502A94C8F8EB
:1044B000043029967FF7A5AE0C990A9828AA03F034
:1044C0008DF800287FF44DABDDE929640DF1AC08CF
:1044D00099E6129B5D1E002D7FF795AE102D40F3DF
:1044E000DF86224607974FF0100BDFF818910A9CE1
:1044F0000C9F05E008F10808103D102D40F37F8364
:1045000001361032072EC8E9009BCDE92962F1DDA2
:104510003946204628AA03F061F800287FF421AB31
:10452000DDE929620DF1AC08E6E70C990A9828AAA2
:1045300003F054F800287FF414AB2A9C0DF1AC086A
:10454000FFF774BB1BF010030E9A3AD11BF0400129
:1045500033D052F8044B99460E920123A4B2FFF7D0
:10456000BDBA2D2364428DF88330BB464FF0010362
:1045700069EB4909FFF7B5BA0C990A9828AA03F024
:104580002DF800287FF4EDAADDE929640DF1AC08CF
:1045900013E60C990A9828AA03F020F800287FF463
:1045A000E0AADDE929640DF1AC0813E6FD077FF50B
:1045B0004FAB24E554ADFFF76CBA1BF4007940F023
:1045C0008A8352F8044B01230E92FFF787BAB8058D
:1045D00000F19B834FEAE4794B46FFF740BA0E9B0C
:1045E000089853F8041BC2175546C1E900020E9300
:1045F000FFF74CBB0E9B53F8044B0E93FFF76BBABF
:104600002C9A00083C9A0008DDE9140102460B468A
:10461000FCF76AFA002840F0E985612E00F07D85FC
:10462000412E00F08B84079B013300F08F8326F02E
:104630002003472B069300F08F85DDE9141247F421
:1046400080730F931346002BC0F2B0850B930023A9
:104650008B461D930D93069B462B00F0E983452B5B
:1046600000F0468507990B9B01910221009126A934
:10467000049123A9039122A95A460A98029100F0B5
:1046800007FF069B0546472B40F03A8617F0010FBF
:10469000B9460F9F40F0FE84269B5B1B1293069B3E
:1046A000472B00F06E83069B462B00F0F083229B85
:1046B0001093109B069A013B412A229300F0BB8580
:1046C0000021F2B2002B8DF89020B6BF2D222B22B4
:1046D000109B8DF89120B8BFC3F10103092B40F363
:1046E0009B850DF19F0C6246B64F1C46104687FB1A
:1046F0000312D917C1EBA20101EB8102A3EB420225
:104700003032632C00F8012C0B4600F1FF32ECDC58
:104710003033811EDBB28C4502F8013C40F2F98552
:104720000DF1920101E012F8013B944501F8013BC3
:10473000F9D10DF1A1030DF192021B1A134424AA21
:104740009B1A1A93129B1A9A012B1A440B9240F34C
:1047500081850B9B169A13440B9300230B9A29F423
:10476000806722EAE27247F480770F9306921393F0
:1047700010931D9B002B40F02C839DF88320079302
:10478000FFF794B9BB46FFF72FBB8F4B189317F079
:10479000200900F0F5800E9B073323F00703D3F8C0
:1047A000049053F8084B0E93F80709D554EA09030F
:1047B00006D030238DF8856047F002078DF88430ED
:1047C000022327F4806BFFF789B9804B1893DEE74B
:1047D0000C990A9828AA02F001FF00287FF4C1A9C9
:1047E0002A9C0DF1AC0818E440210A9801F028FF3A
:1047F0000C9B18601861002800F0978540230C9AE4
:104800005361FFF762B8102E40F37685DFF8C09150
:10481000424648462146A846B9464FF0100B074687
:10482000299B0A9C0C9D04E00832103E102E40F398
:10483000138201331031072BC2E9007BCDE9293106
:10484000F2DD2946204628AA02F0C8FE00287FF49F
:1048500088A9DDE929312BAAE7E72846CDF81C9085
:104860000E94FEF7DFFD20EAE0739DF883200B90A5
:10487000CDF83490CDF83C90CDF84C90CDF84090E8
:104880000693FFF713B9129B4246DDF84C80EB18F4
:104890005E460793CDF82CA010972146199FDDF8AE
:1048A0007090DDF828A0DDF830B00F9B1395B8F1BB
:1048B000000F2ED083BB013F08F1FF381B9B4944FA
:1048C000C2E90039299B2A910133072B299360DC27
:1048D0000832079B38789B1B8342A8BF0346002BF6
:1048E0001C460BDD2998194401300728C2E90063F2
:1048F0002A91299000F3148138780832002CB4BF33
:104900000546051B002D0BDC06440F9BB8F1000F7C
:10491000D0D1002B00F026820F9B013B0F93CDE7F7
:10492000102D40F39D841024299804E0103D102D93
:1049300002F1080216DD0130254B10310728C2E9CB
:104940000034CDE92901F1DD5946504628AA02F08C
:1049500045FE00287FF405A9DDE92901103D102D51
:104960002BAAE8DC01301A4B29440728CDE929019C
:104970005560136000F34182387808320644C4E77A
:1049800017F0100300F0A0800E9B53F8044B0E9319
:104990000AE75946504628AA02F020FE00287FF474
:1049A000E0A82A992BAA94E700230BF480620696CC
:1049B000CDF82CA0CDF834801E469246DDF86480F8
:1049C00054AF14E067666666F89900080C9A000810
:1049D0003C9A00080023204649460A22FCF7C2F808
:1049E0000A2C79F100031BD3044689462F46204642
:1049F0000A2200234946FCF7B5F830327D1E013605
:104A000007F8012CBAF1000FE4D098F800309E426C
:104A1000E0D1FF2EDED00A2C79F1000380F0308146
:104A200054AB5B1BDDF82CA0CDF8648012965F467A
:104A3000069EDDF834800B93FFF72BB80C990A988B
:104A400028AA1D9302F0CAFD00287FF48AA89DF8C9
:104A500083202A9C1D9B0DF1AC08FFF7B8B80123F9
:104A6000C8F80430299BBC4A01330134072B2A942F
:104A70002993C8F8002000F3178108F108080029DD
:104A800040F08680129A07F0010313433FF4E0A838
:104A9000169B17991A19C8E90013299B2A9201330A
:104AA000072B299300F3378108F108081299013385
:104AB0008C18072BCDE92934C8F80050C8F8041029
:104AC0007FF7C4A8FFF7ACBB17F0400200F0A58049
:104AD0000E9A994652F8044B0E92A4B264E6BB4675
:104AE000FEF7CABF0C990A9828AA02F077FD0028A1
:104AF0007FF437A82A9C0DF1AC08FFF77BBA144667
:104B00003A464F46914601332C44072BC8F8009093
:104B1000C8F80450CDE929347FF798A8FFF780BB87
:104B20005946504628AA02F059FD00287FF419A8DA
:104B300038782A992BAAE1E60C990A9828AA02F05B
:104B40004DFD00287FF40DA82A9C0DF1AC08FFF75D
:104B500065B8012BBB467FF4F5A9FEF792BF0E9B0B
:104B6000089953F8042B554611600E93FFF78EB841
:104B7000062B294628BF06232A4607950D9506933E
:104B8000764D0E940B930F9113911091FEF78EBFFB
:104B9000169B17981A19C8E90003299B2A9201331A
:104BA000072B299300F3B78008F108080029BFF606
:104BB0007DAF4E42103180F2A98341461024A846B1
:104BC000DFF89C91DDF828B00C9D04E00831103E20
:104BD000102E40F3A78201331032072BC1E9009455
:104BE000CDE92932F2DD2946584628AA02F0F6FC22
:104BF00000287EF4B6AFDDE929322BA9E7E7144699
:104C0000079F01362C44072ECDE92964C8F800908F
:104C1000C8F804507FF7F5AA4EE417F400790E9B0C
:104C200066D053F8044B91460E93E4B2BCE517F4FA
:104C300000790E9B57D053F8044B91460E93E4B283
:104C4000FEF749BF299ADFF81891FFF795BA2D2290
:104C50008DF88320FFF757B8454690463A460C46F4
:104C60004F46914601333444072BCDE92934C8F827
:104C70000090C8F804605CDC08F10808FFF79EBBF0
:104C80001C9B1B99ED1A1A46284602F061FC98F805
:104C900001300BB108F10108204649460A220023E1
:104CA0000026FBF75FFF9FE60C990A9828AA02F0FE
:104CB00095FC00287EF455AF22992A9C0DF1AC0892
:104CC000DDE6129AAE18A6EB0B06D51AAE42A8BFC7
:104CD0002E46FFF7A6BB52F8044B894601230E92DD
:104CE000E4B2FEF7FBBE53F8044B0E93FEF7F3BE9F
:104CF00053F8044B0E9357E50E9B089953F8042B79
:104D0000554611800E93FEF7C1BF44F3C0194B46C0
:104D100064B2FEF7A4BE0C990A9828AA02F05EFCC1
:104D200000287EF41EAFDDE9293222990DF1AC088E
:104D30003CE70C990A9828AA02F050FC00287EF45F
:104D400010AF2A9C0DF1AC08FFF738BB0623079380
:104D500026F02003069370E4289A0008209A0008A1
:104D60003C9A0008DDE91235EB189E42B3461997CC
:104D700090460C4628BF9B46DDF82CA0109FFFF7FD
:104D800023BB229BDA1C109302DB079A934204DDBB
:104D9000023E26F0200306938BE4109B129A934266
:104DA000C0F2C28019F0010F00F01D82169A134460
:104DB0000B9319F4806F00F01482109B6726002B70
:104DC00076DC0B9B23EAE373069300230F93139384
:104DD000CFE42D2200238DF883200793FEF768BED1
:104DE0000C990A9828AA02F0F9FB00287EF4B9AEC3
:104DF0002A9C0DF1AC08FFF7D8BA5946504628AAAC
:104E000002F0ECFB00287EF4ACAE38782A992BAA8D
:104E100006447AE50C990A9828AA02F0DFFB0028DC
:104E20007EF49FAE229B2A9C0DF1AC08FFF7E1BAFD
:104E300007990B9B01910321009126A9049123A9B5
:104E4000039122A95A460A98029100F021FB0378A7
:104E50000546302B00F01682229B079AB946134470
:104E60000F9FEC185846002200230B99FBF70AFE0F
:104E700008B1234611E4269BA342BFF40EAC3021B7
:104E80005A1C26921970269B9C42F9D805E4229A56
:104E9000002A109240F30E82079909F001030B4398
:104EA00040F07E816626109B0B9319F4806F88D0AA
:104EB00019990B78FF2B00F025820024109A2046C8
:104EC00004E001300131FF2B00F05981934280F260
:104ED0005681D21A4B78002BF3D10B780134F2E7CC
:104EE000DDE92921FFF7DAB9079B9DF883200E94AD
:104EF00006930B9307900F9013901090FEF7D6BD7A
:104F00000C990A9828AA02F069FB00287EF429AEC1
:104F1000229D129B2A9C0DF1AC085D1BFFF781BA04
:104F200000230793FEF70BBD129B169A9A18109B4D
:104F30000B92002B40F385816726B6E730238DF86E
:104F4000843058238DF88530079B47F00204632B8B
:104F500000F3C48000233BAD0D9347F481730F939E
:104F6000DDE914121346002B2746C0F284800B9310
:104F700000238B461D9326F020030693612E00F03C
:104F80001881412E7FF467AB22AA58460B9902F094
:104F90002FFA00224FF07F53FBF70CFB02460B4623
:104FA000CDE9102300220023FBF76CFD08B101239B
:104FB0002293AD4B0B93079BCDE912A6CDE91E784A
:104FC000DDE91067AB46DDF82CA003F1FF39109541
:104FD00006E00022002309F1FF39FBF753FDE8B991
:104FE0000022A24B30463946FBF7E4FA0F4606464C
:104FF000FBF790FD0446FBF773FA0B460246394671
:105000003046FBF71FF91AF80430B9F1FF3FD846D4
:105010004D4606460F460BF8013BDAD1304639467D
:105020000022934BA946DDF848A0109DCDF848809A
:10503000CDE91001DDF87C80139E1E9FFBF74AFD31
:1050400080BBDDE910010022894BFBF71BFD08B195
:10505000E10727D44B46002B06DB302201335B44AB
:105060000BF8012B5B45FBD1ABEB0503B946129363
:105070000F9FFFF714BB26F0200306932D22DDE9D6
:1050800014349B4604F100431D920B9376E7299B51
:10509000FFF75CB9079BEC18E4E6299ADFF8D49196
:1050A000FFF727B8129B26930B9B1BF8012CD97B8B
:1050B0005B468A4209D1302003F8010C269B5A1E18
:1050C000269213F8012C9142F6D0392A0BBF0B9A85
:1050D0000132927AD2B203F8012CC5E70A98591C22
:1050E00001F0AEFA0546002800F017810D9034E774
:1050F0000221009107995A464C1C26A9049123A924
:10510000039122A90B9B0A980194029100F0C0F927
:105110000546B9462C440F9FA4E630238DF8843011
:1051200078230FE74546884601333244072BCDE903
:105130002932C8F80090C8F804607FF7B5AC0C9924
:105140000A9828AA02F04AFA00287EF40AADDDE99E
:1051500029320DF1AC08A9E4079B002B08BF0123FD
:10516000079347F480730F93159B002BC0F2B68012
:10517000DDF850B00D900B931D90FFF773BA1991A5
:10518000109213900F940F9A139B1C9913440B9A2F
:1051900001FB03230B9323EAE3730693FFF7E9BABA
:1051A000169B6626D31819440B917EE600230D93B7
:1051B00064E722AA58460B9902F01AF900224FF030
:1051C0007F53FBF7F7F902460B46CDE91023002287
:1051D0000023FBF757FC08B101232293264B0B93C6
:1051E000E9E66726EDE5109B0B93E2E5159B0320AE
:1051F000002BB8BF2D224FF00003A8BF9DF88320DD
:1052000019460D931D4D1E4BB8BF8DF8832027F016
:1052100080070690FEF77FBD002944D130228DF82B
:1052200092200DF19302303302F8013B24ABD31AE4
:105230001A93FFF787BA06F10F020121D2B2FFF7E6
:1052400041BAC3F101031A4422EAE27367260B92C2
:105250000693BAE519F0010F3FF47FAAFFF779BA78
:105260002998FFF77FBB00BF0C9A00080000304070
:105270000000E03F3C9A0008F8990008F099000807
:10528000F49900085846002200230B99FBF7FAFB1B
:1052900000287FF4E1AD079BC3F101032293DCE515
:1052A000DFF89890ADE40DF19202BCE7299BDFF89E
:1052B0008C9028E4079A09F0010959EA020304D105
:1052C0000123662606930B937FE5169B6626013322
:1052D0001A4422EAE2730B92069376E50D90CDE62E
:1052E0000E9B9AF80160924653F8042B0E9342EA03
:1052F000E2730793FEF721BB299BDFF84090B1E4EE
:10530000079C06E700230F9313933CE7DFF82C90EC
:105310000AE702231A93FFF715BA0C998B8943F019
:10532000400213468A81FEF724BC4FF0FF320C2363
:1053300008920A9A1360FEF723BC00BF3C9A00084B
:10534000024B13B1024800F005B87047000000009E
:105350005D630008002301461A46184602F0BCB9F6
:105360002DE9F04F03690C6985B0A342C0F2898032
:10537000013C01F11405A30000F11408019355F854
:10538000243058F8242001338A469A4208EB8401DD
:105390008146B2FBF3F605EB840702913AD3002174
:1053A000AE4640460A46A34603955EF8045B046891
:1053B000ABB206FB03132D0C190C06FB05119BB2B7
:1053C000D21A1FFA84FC94448AB2C2EB144202EB54
:1053D0002C421FFA8CFC4CEA0243774540F8043B10
:1053E0004FEA11414FEA2242DFD2019B5C4658F856
:1053F0000330039D73B9029B043B984504D307E037
:10540000984504F1FF3403D253F80429002AF7D059
:10541000C9F810405146484601F0C2FE00282CDB76
:1054200040460023013655F8041BD0F800C08AB26C
:105430009A1A1FFA8CFE0B0C7244C3EB1C4303EB4D
:10544000224392B242EA0342AF4240F8042B4FEAB1
:105450002343E8D258F8242008EB84036AB9043BBC
:10546000984504D307E0984504F1FF3403D253F87C
:105470000429002AF7D0C9F81040304605B0BDE82D
:10548000F08F002005B0BDE8F08F00BF00000000E5
:105490002DE9F04F90469946016C99B00446CDE94C
:1054A0000489259D41B10123426C93408B604A6081
:1054B00001F020FC00232364B9F1000AB4BF0123EA
:1054C00000232B60764BBCBF2AF0004ACDF814A015
:1054D00033EA0A0300F0AA80DDE9042310461946E6
:1054E00000220023CDE90A01FBF7CCFA074670B190
:1054F0000123249A1360269B002B00F0E682694862
:105500001860431E0393039819B0BDE8F08F16ABE3
:10551000019317AB00932046DDE90A2301F006FF53
:105520005FEA1A56054640F09780DDE916763E445C
:1055300006F23240202840F3B783C0F140000AFA57
:1055400000FA06F2124028FA00F04AEA0000FAF7E0
:10555000B7FF0123013E0F93A1F1F8710022524BD6
:10556000FAF770FE48A3D3E90023FBF723F848A31A
:10557000D3E90023FAF768FE804630468946FAF7F9
:10558000AFFF45A3D3E90023FBF714F802460B460F
:1055900040464946FAF758FE80468946FBF7BAFA74
:1055A00000228346002340464946FBF775FA00284F
:1055B00040F07E82BBF1160F00F26D82DDE90A0138
:1055C0003A4B03EBCB03D3E90023FBF765FA002842
:1055D00072D00023BE1B0E93731E0BF1FF3B06938C
:1055E00000F1608200230993BBF1000F6BDA099B85
:1055F000CDF81CB0A3EB0B030993CBF100030D9383
:10560000229B4FF0000B092B66D8052B40F34A83F1
:105610000026043B2293229B023B032B00F26C8664
:10562000DFE813F061045E045504380442F20F739E
:10563000249ACAF3130A13605AEA08031AD1269B64
:10564000002B00F068861A4B03930833269A0398C0
:10565000136019B0BDE8F08FDDE90A12C2F313033D
:10566000084643F07F510F97A6F2FF36169F41F48C
:10567000401173E7269B002B40F0EF830D4B039303
:1056800041E700BFAFF3008061436F63A787D23F5C
:10569000B3C8608B288AC63FFB799F501344D33F21
:1056A0000000F07F299A00080000F83F989B00084E
:1056B000509A00084C9A0008BE1B731E069300F116
:1056C0008A840E900990069B5B44CDE9063B00233B
:1056D0000D93229B092B98D9002322934FF0FF337F
:1056E0000126089300230C9623930021089B6164F4
:1056F0001293204601F0D8FA0390002800F00486A7
:10570000039B2364089B0E2B00F21481002E00F0F3
:1057100011810799002940F36084AF4B01F00F021B
:1057200003EBC2030A46D3E900674FEA2118D1050B
:1057300040F11784DDE90A01A84B4FF0030AD3E9D1
:105740000823FBF761F8CDE9100108F00F08B8F164
:10575000000F13D0DFF8849218F0010F09D0D9E9B7
:10576000002330463946FAF725FF06460F460AF170
:10577000010A5FEA680809F10809EDD1DDE91001C5
:1057800032463B46FBF740F8804689460E9B43B1C4
:10579000002240464946924BFBF77EF9002840F034
:1057A00035855046FAF79CFE42464B46FAF702FF13
:1057B0008C4B0022FAF748FDA1F15073CDE910019E
:1057C0001193089B002B00F09780079B1493089B74
:1057D00013930C9B002B00F0A984139A7E4B00209E
:1057E00003EBC20353E902237F49FBF70DF8DDE920
:1057F0001023FAF727FDCDE9100149464046FBF793
:1058000089F90746FAF76CFE02460B4640464946C0
:10581000FAF718FDDDE91023039E303706F8017B07
:1058200080468946FBF738F9002840F02E85CDF8F0
:1058300054B00027DDE910AB1095139D13942AE0B6
:105840000137AF4280F22E85504659460022674B01
:10585000FAF7B0FE0022654B82468B464046494629
:10586000FAF7A8FE89468046FBF754F90446FAF792
:1058700037FE02460B4640464946FAF7E3FC303411
:1058800052465B4606F8014B80468946FBF704F911
:10589000002840F0F88442464B4600205049FAF771
:1058A000D1FC52465B46FBF7F7F80028C8D0DDE98B
:1058B0001343109D039A079302E0964200F0CD84B3
:1058C000B24616F8013D392BF7D00133DBB2337005
:1058D000079B01330793C8E15046FAF701FE4246A1
:1058E0004B46FAF767FE3F4B0022FAF7ADFCA1F1F9
:1058F0005073CDE9100111934046494600223C4BBC
:10590000FAF7A0FCDDE910894B46424606460F46F1
:10591000FBF7E0F88146002840F0AF84DDE9100194
:10592000024601F1004330463946FBF7B5F800283E
:1059300040F04883179B002BC0F28C80079A0E2AF8
:1059400000F38880244B03EBC203D3E900AB239B15
:10595000002B1BDA089B002B18DC40F0318300225F
:10596000234B50465946FAF725FE02460B46DDE921
:105970000A01FBF79BF8DDF820904E46002800F066
:10598000CA82239BDDF80C80DF43CCE25246DDE97E
:105990000A785B4638464146FAF736FFFBF7BAF815
:1059A00081460990FAF79CFD52465B46FAF702FEE3
:1059B000039E0B46024641463846FAF743FC09F17E
:1059C000300306F8013B089B012B00F05F8306942F
:1059D00001271C4604952AE0989B0008709B00084C
:1059E0000000F03F00001C400000E03F00002440A9
:1059F0000000144052465B4640464946FAF704FF11
:105A0000FBF788F80546FAF76BFD52465B46FAF756
:105A1000D1FD01370B46024649464046FAF712FCD3
:105A200005F13003A74206F8013B00F02C83002269
:105A3000AB4BFAF7BFFD0022002380468946FBF7F7
:105A400021F80028D6D0049D069C079BB24601335E
:105A500007930AE10C9A002A3DD0229A012A40F3CA
:105A60009F82089B03F1FF380D9B4345C0F2708273
:105A7000A3EB0808089B002BC0F24083069A1A4447
:105A80000692099A17461A4409920121204601F00C
:105A9000D9F9064623E00123BE1B0E93731E06931D
:105AA0007FF5A0ADC6F101030993002306939BE5A2
:105AB0005846FAF715FD42464B46FAF7E3FF002831
:105AC0007FF478AD0BF1FF3B74E5864B03930398AD
:105AD00019B0BDE8F08FDDF83480099F0C9E002FCF
